{
  "contractName": "ReviewContract",
  "abi": [
    {
      "constant": true,
      "inputs": [
        {
          "name": "",
          "type": "uint256"
        }
      ],
      "name": "indexReview",
      "outputs": [
        {
          "name": "",
          "type": "string"
        }
      ],
      "payable": false,
      "stateMutability": "view",
      "type": "function"
    },
    {
      "constant": true,
      "inputs": [],
      "name": "totalHashes",
      "outputs": [
        {
          "name": "",
          "type": "uint256"
        }
      ],
      "payable": false,
      "stateMutability": "view",
      "type": "function"
    },
    {
      "constant": false,
      "inputs": [],
      "name": "renounceOwnership",
      "outputs": [],
      "payable": false,
      "stateMutability": "nonpayable",
      "type": "function"
    },
    {
      "constant": true,
      "inputs": [
        {
          "name": "_hashReview",
          "type": "string"
        }
      ],
      "name": "getExistingReview",
      "outputs": [
        {
          "name": "",
          "type": "bool"
        }
      ],
      "payable": false,
      "stateMutability": "view",
      "type": "function"
    },
    {
      "constant": true,
      "inputs": [],
      "name": "owner",
      "outputs": [
        {
          "name": "",
          "type": "address"
        }
      ],
      "payable": false,
      "stateMutability": "view",
      "type": "function"
    },
    {
      "constant": false,
      "inputs": [
        {
          "name": "_newOwner",
          "type": "address"
        }
      ],
      "name": "transferOwnership",
      "outputs": [],
      "payable": false,
      "stateMutability": "nonpayable",
      "type": "function"
    },
    {
      "constant": true,
      "inputs": [
        {
          "name": "_index",
          "type": "uint256"
        }
      ],
      "name": "getReviewHash",
      "outputs": [
        {
          "name": "",
          "type": "string"
        }
      ],
      "payable": false,
      "stateMutability": "view",
      "type": "function"
    },
    {
      "inputs": [],
      "payable": false,
      "stateMutability": "nonpayable",
      "type": "constructor"
    },
    {
      "payable": true,
      "stateMutability": "payable",
      "type": "fallback"
    },
    {
      "anonymous": false,
      "inputs": [
        {
          "indexed": false,
          "name": "_reviewHash",
          "type": "string"
        },
        {
          "indexed": false,
          "name": "_createdTime",
          "type": "uint256"
        }
      ],
      "name": "NewReviewHash",
      "type": "event"
    },
    {
      "anonymous": false,
      "inputs": [
        {
          "indexed": true,
          "name": "previousOwner",
          "type": "address"
        }
      ],
      "name": "OwnershipRenounced",
      "type": "event"
    },
    {
      "anonymous": false,
      "inputs": [
        {
          "indexed": true,
          "name": "previousOwner",
          "type": "address"
        },
        {
          "indexed": true,
          "name": "newOwner",
          "type": "address"
        }
      ],
      "name": "OwnershipTransferred",
      "type": "event"
    },
    {
      "constant": false,
      "inputs": [
        {
          "name": "_reviewHash",
          "type": "string"
        }
      ],
      "name": "addNewReviewHash",
      "outputs": [],
      "payable": false,
      "stateMutability": "nonpayable",
      "type": "function"
    }
  ],
  "bytecode": "0x608060405234801561001057600080fd5b5060008054600160a060020a03191633179055610905806100326000396000f30060806040526004361061008d5763ffffffff7c01000000000000000000000000000000000000000000000000000000006000350416630840964681146100f45780632cd0318f146101815780633f22a68b146101a8578063715018a6146102035780637bcbccc9146102185780638da5cb5b14610285578063f2fde38b146102b6578063f91f230c146102d7575b604080517f08c379a000000000000000000000000000000000000000000000000000000000815260206004820152601960248201527f436f6e74726163742063616e6e6f742062652066756e64656400000000000000604482015290519081900360640190fd5b34801561010057600080fd5b5061010c6004356102ef565b6040805160208082528351818301528351919283929083019185019080838360005b8381101561014657818101518382015260200161012e565b50505050905090810190601f1680156101735780820380516001836020036101000a031916815260200191505b509250505060405180910390f35b34801561018d57600080fd5b50610196610396565b60408051918252519081900360200190f35b3480156101b457600080fd5b506040805160206004803580820135601f810184900484028501840190955284845261020194369492936024939284019190819084018382808284375094975061039d9650505050505050565b005b34801561020f57600080fd5b50610201610587565b34801561022457600080fd5b506040805160206004803580820135601f81018490048402850184019095528484526102719436949293602493928401919081908401838280828437509497506105f39650505050505050565b604080519115158252519081900360200190f35b34801561029157600080fd5b5061029a610677565b60408051600160a060020a039092168252519081900360200190f35b3480156102c257600080fd5b50610201600160a060020a0360043516610686565b3480156102e357600080fd5b5061010c6004356106a9565b60028054829081106102fd57fe5b600091825260209182902001805460408051601f600260001961010060018716150201909416939093049283018590048502810185019091528181529350909183018282801561038e5780601f106103635761010080835404028352916020019161038e565b820191906000526020600020905b81548152906001019060200180831161037157829003601f168201915b505050505081565b6002545b90565b600054600160a060020a031633146103b457600080fd5b6103bd816105f3565b1561042957604080517f08c379a000000000000000000000000000000000000000000000000000000000815260206004820152601260248201527f496e646578206861736e27742065786973740000000000000000000000000000604482015290519081900360640190fd5b600180826040518082805190602001908083835b6020831061045c5780518252601f19909201916020918201910161043d565b51815160209384036101000a6000190180199092169116179052920194855250604051938490038101909320805460ff19169415159490941790935550600280546001810180835560009290925284519193506104e1927f405787fa12a823e0f2b7631cc41b3ba8828b3321ca811111fa75cd3aa3bb5ace9091019190850190610841565b50507f444048990a5e63f030260729dc6dcd2fbb5a60ab3ac9d0a609dad4756dd3e8b581426040518080602001838152602001828103825284818151815260200191508051906020019080838360005b83811015610549578181015183820152602001610531565b50505050905090810190601f1680156105765780820380516001836020036101000a031916815260200191505b50935050505060405180910390a150565b600054600160a060020a0316331461059e57600080fd5b60008054604051600160a060020a03909116917ff8df31144d9c2f0f6b59d69b8b98abd5459d07f2742c4df920b25aae33c6482091a26000805473ffffffffffffffffffffffffffffffffffffffff19169055565b60006001826040518082805190602001908083835b602083106106275780518252601f199092019160209182019101610608565b51815160001960209485036101000a0190811690199190911617905292019485525060405193849003019092205460ff16151560011415915061066e905057506001610672565b5060005b919050565b600054600160a060020a031681565b600054600160a060020a0316331461069d57600080fd5b6106a6816107c4565b50565b600254606090821061071c57604080517f08c379a000000000000000000000000000000000000000000000000000000000815260206004820152601260248201527f496e646578206861736e27742065786973740000000000000000000000000000604482015290519081900360640190fd5b600280548390811061072a57fe5b600091825260209182902001805460408051601f60026000196101006001871615020190941693909304928301859004850281018501909152818152928301828280156107b85780601f1061078d576101008083540402835291602001916107b8565b820191906000526020600020905b81548152906001019060200180831161079b57829003601f168201915b50505050509050919050565b600160a060020a03811615156107d957600080fd5b60008054604051600160a060020a03808516939216917f8be0079c531659141344cd1fd0a4f28419497f9722a3daafe3b4186f6b6457e091a36000805473ffffffffffffffffffffffffffffffffffffffff1916600160a060020a0392909216919091179055565b828054600181600116156101000203166002900490600052602060002090601f016020900481019282601f1061088257805160ff19168380011785556108af565b828001600101855582156108af579182015b828111156108af578251825591602001919060010190610894565b506108bb9291506108bf565b5090565b61039a91905b808211156108bb57600081556001016108c55600a165627a7a72305820f14618198c891b4ffa9e503174871b4ebfa27116d5653fd91d054ca1bb848a090029",
  "source": "pragma solidity ^0.4.24;\n\nimport \"./Access/Ownable.sol\";\nimport \"./ReviewStorage/ReviewStorage.sol\";\n\n\n/**\n * @title ReviewContract\n * @dev The ReviewContract contract has an   .\n */\ncontract ReviewContract is Ownable, ReviewStorage {\n\n    /**\n    * @dev The ReviewContract constructor\n    */\n    constructor () public { }\n\n\n    /**\n     * @dev Saves the hash to storage if it doesn't already exist\n     * @param _reviewHash  Verifiable hash.\n     * It will not be possible to call the functions with the `onlyOwner`\n     * modifier anymore.\n     */\n    function addNewReviewHash(string  _reviewHash) public onlyOwner {\n        require(!getExistingReview(_reviewHash), \"Index hasn't exist\");\n        clientReviews[_reviewHash] = true;\n        indexReview.push(string(_reviewHash));\n        emit NewReviewHash(_reviewHash, now);\n    }\n\n    /**\n     * @dev Fullback call\n     */\n    function () public payable {\n        revert(\"Contract cannot be funded\");\n    }\n}\n",
  "sourcePath": "/home/pillardev/Desktop/freelance/ethereum_hash_checker/contracts/ReviewContract.sol",
  "compiler": {
    "name": "solc",
    "version": "0.4.25+commit.59dbf8f1.Emscripten.clang"
  },
  "schemaVersion": "2.0.2",
  "updatedAt": "2020-02-06T07:20:43.587Z"
}