{
  "contractName": "ReviewStorage",
  "abi": [
    {
      "constant": true,
      "inputs": [
        {
          "name": "",
          "type": "uint256"
        }
      ],
      "name": "indexReview",
      "outputs": [
        {
          "name": "",
          "type": "string"
        }
      ],
      "payable": false,
      "stateMutability": "view",
      "type": "function"
    },
    {
      "anonymous": false,
      "inputs": [
        {
          "indexed": false,
          "name": "_reviewHash",
          "type": "string"
        },
        {
          "indexed": false,
          "name": "_createdTime",
          "type": "uint256"
        }
      ],
      "name": "NewReviewHash",
      "type": "event"
    },
    {
      "constant": true,
      "inputs": [
        {
          "name": "_hashReview",
          "type": "string"
        }
      ],
      "name": "getExistingReview",
      "outputs": [
        {
          "name": "",
          "type": "bool"
        }
      ],
      "payable": false,
      "stateMutability": "view",
      "type": "function"
    },
    {
      "constant": true,
      "inputs": [
        {
          "name": "_index",
          "type": "uint256"
        }
      ],
      "name": "getReviewHash",
      "outputs": [
        {
          "name": "",
          "type": "string"
        }
      ],
      "payable": false,
      "stateMutability": "view",
      "type": "function"
    },
    {
      "constant": true,
      "inputs": [],
      "name": "totalHashes",
      "outputs": [
        {
          "name": "",
          "type": "uint256"
        }
      ],
      "payable": false,
      "stateMutability": "view",
      "type": "function"
    }
  ],
  "bytecode": "0x608060405234801561001057600080fd5b50610416806100206000396000f3006080604052600436106100615763ffffffff7c01000000000000000000000000000000000000000000000000000000006000350416630840964681146100665780632cd0318f146100f35780637bcbccc91461011a578063f91f230c14610187575b600080fd5b34801561007257600080fd5b5061007e60043561019f565b6040805160208082528351818301528351919283929083019185019080838360005b838110156100b85781810151838201526020016100a0565b50505050905090810190601f1680156100e55780820380516001836020036101000a031916815260200191505b509250505060405180910390f35b3480156100ff57600080fd5b50610108610246565b60408051918252519081900360200190f35b34801561012657600080fd5b506040805160206004803580820135601f810184900484028501840190955284845261017394369492936024939284019190819084018382808284375094975061024c9650505050505050565b604080519115158252519081900360200190f35b34801561019357600080fd5b5061007e6004356102cf565b60018054829081106101ad57fe5b600091825260209182902001805460408051601f600260001961010060018716150201909416939093049283018590048502810185019091528181529350909183018282801561023e5780601f106102135761010080835404028352916020019161023e565b820191906000526020600020905b81548152906001019060200180831161022157829003601f168201915b505050505081565b60015490565b600080826040518082805190602001908083835b6020831061027f5780518252601f199092019160209182019101610260565b51815160001960209485036101000a0190811690199190911617905292019485525060405193849003019092205460ff1615156001141591506102c69050575060016102ca565b5060005b919050565b600154606090821061034257604080517f08c379a000000000000000000000000000000000000000000000000000000000815260206004820152601260248201527f496e646578206861736e27742065786973740000000000000000000000000000604482015290519081900360640190fd5b600180548390811061035057fe5b600091825260209182902001805460408051601f60026000196101006001871615020190941693909304928301859004850281018501909152818152928301828280156103de5780601f106103b3576101008083540402835291602001916103de565b820191906000526020600020905b8154815290600101906020018083116103c157829003601f168201915b505050505090509190505600a165627a7a72305820fdae8ca430ea9f381af05e0a49576c91a1e3de09f536d3244cb46f782cb426810029",
  "source": "pragma solidity ^0.4.24;\n\n\n/**\n * @title ReviewStorage\n * @dev The ReviewStorage contract has an  .\n */\ncontract ReviewStorage {\n\n    mapping (string => bool) internal  clientReviews;\n    string[] public indexReview;\n\n    event NewReviewHash(string _reviewHash, uint256 _createdTime);\n\n    /**\n     * @dev Returns whether this hash exists or not.\n     * @param _hashReview Verifiable hash.\n     */\n    function getExistingReview(string _hashReview) public view returns(bool) {\n        if (clientReviews[_hashReview] == true) {\n            return true;\n        }\n        else\n            return false;\n    }\n\n    /**\n    * @dev Returns hash by index.\n    * @param _index  Verifiable index.\n    */\n    function getReviewHash(uint256 _index) public view returns(string) {\n        require(_index < indexReview.length, \"Index hasn't exist\");\n        return indexReview[_index];\n    }\n\n    /**\n     * @dev Returns the number of saved hashes.\n    */\n    function totalHashes() public view returns(uint256) {\n        return indexReview.length;\n    }\n}\n",
  "sourcePath": "/home/pillardev/Desktop/freelance/ethereum_hash_checker/contracts/ReviewStorage/ReviewStorage.sol",
  "compiler": {
    "name": "solc",
    "version": "0.4.25+commit.59dbf8f1.Emscripten.clang"
  },
  "schemaVersion": "2.0.2",
  "updatedAt": "2020-02-05T13:55:25.476Z"
}